{
  "contractName": "GTT",
  "abi": [
    {
      "inputs": [
        {
          "internalType": "string",
          "name": "_name",
          "type": "string"
        },
        {
          "internalType": "string",
          "name": "_symbol",
          "type": "string"
        },
        {
          "internalType": "uint256",
          "name": "_totalSupply",
          "type": "uint256"
        }
      ],
      "stateMutability": "nonpayable",
      "type": "constructor"
    },
    {
      "anonymous": false,
      "inputs": [
        {
          "indexed": true,
          "internalType": "address",
          "name": "owner",
          "type": "address"
        },
        {
          "indexed": true,
          "internalType": "address",
          "name": "spender",
          "type": "address"
        },
        {
          "indexed": false,
          "internalType": "uint256",
          "name": "value",
          "type": "uint256"
        }
      ],
      "name": "Approval",
      "type": "event"
    },
    {
      "anonymous": false,
      "inputs": [
        {
          "indexed": true,
          "internalType": "address",
          "name": "from",
          "type": "address"
        },
        {
          "indexed": true,
          "internalType": "address",
          "name": "to",
          "type": "address"
        },
        {
          "indexed": false,
          "internalType": "uint256",
          "name": "value",
          "type": "uint256"
        }
      ],
      "name": "Transfer",
      "type": "event"
    },
    {
      "inputs": [
        {
          "internalType": "address",
          "name": "",
          "type": "address"
        },
        {
          "internalType": "address",
          "name": "",
          "type": "address"
        }
      ],
      "name": "allowance",
      "outputs": [
        {
          "internalType": "uint256",
          "name": "",
          "type": "uint256"
        }
      ],
      "stateMutability": "view",
      "type": "function"
    },
    {
      "inputs": [
        {
          "internalType": "address",
          "name": "",
          "type": "address"
        }
      ],
      "name": "balanceOf",
      "outputs": [
        {
          "internalType": "uint256",
          "name": "",
          "type": "uint256"
        }
      ],
      "stateMutability": "view",
      "type": "function"
    },
    {
      "inputs": [],
      "name": "decimals",
      "outputs": [
        {
          "internalType": "uint256",
          "name": "",
          "type": "uint256"
        }
      ],
      "stateMutability": "view",
      "type": "function"
    },
    {
      "inputs": [],
      "name": "name",
      "outputs": [
        {
          "internalType": "string",
          "name": "",
          "type": "string"
        }
      ],
      "stateMutability": "view",
      "type": "function"
    },
    {
      "inputs": [],
      "name": "owner",
      "outputs": [
        {
          "internalType": "address",
          "name": "",
          "type": "address"
        }
      ],
      "stateMutability": "view",
      "type": "function"
    },
    {
      "inputs": [],
      "name": "symbol",
      "outputs": [
        {
          "internalType": "string",
          "name": "",
          "type": "string"
        }
      ],
      "stateMutability": "view",
      "type": "function"
    },
    {
      "inputs": [],
      "name": "totalSupply",
      "outputs": [
        {
          "internalType": "uint256",
          "name": "",
          "type": "uint256"
        }
      ],
      "stateMutability": "view",
      "type": "function"
    },
    {
      "inputs": [
        {
          "internalType": "address",
          "name": "recipient",
          "type": "address"
        },
        {
          "internalType": "uint256",
          "name": "amount",
          "type": "uint256"
        }
      ],
      "name": "transfer",
      "outputs": [
        {
          "internalType": "bool",
          "name": "",
          "type": "bool"
        }
      ],
      "stateMutability": "nonpayable",
      "type": "function"
    },
    {
      "inputs": [
        {
          "internalType": "address",
          "name": "spender",
          "type": "address"
        },
        {
          "internalType": "uint256",
          "name": "amount",
          "type": "uint256"
        }
      ],
      "name": "approve",
      "outputs": [
        {
          "internalType": "bool",
          "name": "",
          "type": "bool"
        }
      ],
      "stateMutability": "nonpayable",
      "type": "function"
    },
    {
      "inputs": [
        {
          "internalType": "address",
          "name": "sender",
          "type": "address"
        },
        {
          "internalType": "address",
          "name": "recipient",
          "type": "address"
        },
        {
          "internalType": "uint256",
          "name": "amount",
          "type": "uint256"
        }
      ],
      "name": "transferFrom",
      "outputs": [
        {
          "internalType": "bool",
          "name": "",
          "type": "bool"
        }
      ],
      "stateMutability": "nonpayable",
      "type": "function"
    },
    {
      "inputs": [
        {
          "internalType": "uint256",
          "name": "amount",
          "type": "uint256"
        }
      ],
      "name": "mint",
      "outputs": [],
      "stateMutability": "nonpayable",
      "type": "function"
    },
    {
      "inputs": [
        {
          "internalType": "uint256",
          "name": "amount",
          "type": "uint256"
        }
      ],
      "name": "burn",
      "outputs": [],
      "stateMutability": "nonpayable",
      "type": "function"
    }
  ],
  "bytecode": "0x60806040526012600455348015610014575f5ffd5b50604051611b66380380611b668339818101604052810190610036919061032e565b5f835111610079576040517f08c379a000000000000000000000000000000000000000000000000000000000815260040161007090610410565b60405180910390fd5b5f8251116100bc576040517f08c379a00000000000000000000000000000000000000000000000000000000081526004016100b390610478565b60405180910390fd5b5f81116100fe576040517f08c379a00000000000000000000000000000000000000000000000000000000081526004016100f590610506565b60405180910390fd5b826001908161010d919061072b565b50816002908161011d919061072b565b50805f819055508060055f3373ffffffffffffffffffffffffffffffffffffffff1673ffffffffffffffffffffffffffffffffffffffff1681526020019081526020015f20819055503360035f6101000a81548173ffffffffffffffffffffffffffffffffffffffff021916908373ffffffffffffffffffffffffffffffffffffffff1602179055505050506107fa565b5f604051905090565b5f5ffd5b5f5ffd5b5f5ffd5b5f5ffd5b5f601f19601f8301169050919050565b7f4e487b71000000000000000000000000000000000000000000000000000000005f52604160045260245ffd5b61020d826101c7565b810181811067ffffffffffffffff8211171561022c5761022b6101d7565b5b80604052505050565b5f61023e6101ae565b905061024a8282610204565b919050565b5f67ffffffffffffffff821115610269576102686101d7565b5b610272826101c7565b9050602081019050919050565b8281835e5f83830152505050565b5f61029f61029a8461024f565b610235565b9050828152602081018484840111156102bb576102ba6101c3565b5b6102c684828561027f565b509392505050565b5f82601f8301126102e2576102e16101bf565b5b81516102f284826020860161028d565b91505092915050565b5f819050919050565b61030d816102fb565b8114610317575f5ffd5b50565b5f8151905061032881610304565b92915050565b5f5f5f60608486031215610345576103446101b7565b5b5f84015167ffffffffffffffff811115610362576103616101bb565b5b61036e868287016102ce565b935050602084015167ffffffffffffffff81111561038f5761038e6101bb565b5b61039b868287016102ce565b92505060406103ac8682870161031a565b9150509250925092565b5f82825260208201905092915050565b7f4552524f523a206e616d6520697320656d7074790000000000000000000000005f82015250565b5f6103fa6014836103b6565b9150610405826103c6565b602082019050919050565b5f6020820190508181035f830152610427816103ee565b9050919050565b7f4552524f523a2073796d626f6c20697320656d707479000000000000000000005f82015250565b5f6104626016836103b6565b915061046d8261042e565b602082019050919050565b5f6020820190508181035f83015261048f81610456565b9050919050565b7f4552524f523a20746f74616c20737570706c79206d75737420626520677265615f8201527f746572207468616e207a65726f00000000000000000000000000000000000000602082015250565b5f6104f0602d836103b6565b91506104fb82610496565b604082019050919050565b5f6020820190508181035f83015261051d816104e4565b9050919050565b5f81519050919050565b7f4e487b71000000000000000000000000000000000000000000000000000000005f52602260045260245ffd5b5f600282049050600182168061057257607f821691505b6020821081036105855761058461052e565b5b50919050565b5f819050815f5260205f209050919050565b5f6020601f8301049050919050565b5f82821b905092915050565b5f600883026105e77fffffffffffffffffffffffffffffffffffffffffffffffffffffffffffffffff826105ac565b6105f186836105ac565b95508019841693508086168417925050509392505050565b5f819050919050565b5f61062c610627610622846102fb565b610609565b6102fb565b9050919050565b5f819050919050565b61064583610612565b61065961065182610633565b8484546105b8565b825550505050565b5f5f905090565b610670610661565b61067b81848461063c565b505050565b5b8181101561069e576106935f82610668565b600181019050610681565b5050565b601f8211156106e3576106b48161058b565b6106bd8461059d565b810160208510156106cc578190505b6106e06106d88561059d565b830182610680565b50505b505050565b5f82821c905092915050565b5f6107035f19846008026106e8565b1980831691505092915050565b5f61071b83836106f4565b9150826002028217905092915050565b61073482610524565b67ffffffffffffffff81111561074d5761074c6101d7565b5b610757825461055b565b6107628282856106a2565b5f60209050601f831160018114610793575f8415610781578287015190505b61078b8582610710565b8655506107f2565b601f1984166107a18661058b565b5f5b828110156107c8578489015182556001820191506020850194506020810190506107a3565b868310156107e557848901516107e1601f8916826106f4565b8355505b6001600288020188555050505b505050505050565b61135f806108075f395ff3fe608060405234801561000f575f5ffd5b50600436106100b2575f3560e01c806370a082311161006f57806370a082311461018c5780638da5cb5b146101bc57806395d89b41146101da578063a0712d68146101f8578063a9059cbb14610214578063dd62ed3e14610244576100b2565b806306fdde03146100b6578063095ea7b3146100d457806318160ddd1461010457806323b872dd14610122578063313ce5671461015257806342966c6814610170575b5f5ffd5b6100be610274565b6040516100cb9190610d73565b60405180910390f35b6100ee60048036038101906100e99190610e24565b610300565b6040516100fb9190610e7c565b60405180910390f35b61010c6104db565b6040516101199190610ea4565b60405180910390f35b61013c60048036038101906101379190610ebd565b6104e0565b6040516101499190610e7c565b60405180910390f35b61015a6107bf565b6040516101679190610ea4565b60405180910390f35b61018a60048036038101906101859190610f0d565b6107c5565b005b6101a660048036038101906101a19190610f38565b610926565b6040516101b39190610ea4565b60405180910390f35b6101c461093b565b6040516101d19190610f72565b60405180910390f35b6101e2610960565b6040516101ef9190610d73565b60405180910390f35b610212600480360381019061020d9190610f0d565b6109ec565b005b61022e60048036038101906102299190610e24565b610b4d565b60405161023b9190610e7c565b60405180910390f35b61025e60048036038101906102599190610f8b565b610ce3565b60405161026b9190610ea4565b60405180910390f35b6001805461028190610ff6565b80601f01602080910402602001604051908101604052809291908181526020018280546102ad90610ff6565b80156102f85780601f106102cf576101008083540402835291602001916102f8565b820191905f5260205f20905b8154815290600101906020018083116102db57829003601f168201915b505050505081565b5f8273ffffffffffffffffffffffffffffffffffffffff163373ffffffffffffffffffffffffffffffffffffffff160361036f576040517f08c379a000000000000000000000000000000000000000000000000000000000815260040161036690611070565b60405180910390fd5b8160055f3373ffffffffffffffffffffffffffffffffffffffff1673ffffffffffffffffffffffffffffffffffffffff1681526020019081526020015f205410156103ef576040517f08c379a00000000000000000000000000000000000000000000000000000000081526004016103e6906110d8565b60405180910390fd5b8160065f3373ffffffffffffffffffffffffffffffffffffffff1673ffffffffffffffffffffffffffffffffffffffff1681526020019081526020015f205f8573ffffffffffffffffffffffffffffffffffffffff1673ffffffffffffffffffffffffffffffffffffffff1681526020019081526020015f20819055508273ffffffffffffffffffffffffffffffffffffffff163373ffffffffffffffffffffffffffffffffffffffff167f8c5be1e5ebec7d5bd14f71427d1e84f3dd0314c0f7b2291e5b200ac8c7c3b925846040516104c99190610ea4565b60405180910390a36001905092915050565b5f5481565b5f8160055f8673ffffffffffffffffffffffffffffffffffffffff1673ffffffffffffffffffffffffffffffffffffffff1681526020019081526020015f205411610560576040517f08c379a000000000000000000000000000000000000000000000000000000000815260040161055790611140565b60405180910390fd5b8160065f8673ffffffffffffffffffffffffffffffffffffffff1673ffffffffffffffffffffffffffffffffffffffff1681526020019081526020015f205f3373ffffffffffffffffffffffffffffffffffffffff1673ffffffffffffffffffffffffffffffffffffffff1681526020019081526020015f2054101561061b576040517f08c379a0000000000000000000000000000000000000000000000000000000008152600401610612906111a8565b60405180910390fd5b8160065f8673ffffffffffffffffffffffffffffffffffffffff1673ffffffffffffffffffffffffffffffffffffffff1681526020019081526020015f205f3373ffffffffffffffffffffffffffffffffffffffff1673ffffffffffffffffffffffffffffffffffffffff1681526020019081526020015f205f8282546106a291906111f3565b925050819055508160055f8673ffffffffffffffffffffffffffffffffffffffff1673ffffffffffffffffffffffffffffffffffffffff1681526020019081526020015f205f8282546106f591906111f3565b925050819055508160055f8573ffffffffffffffffffffffffffffffffffffffff1673ffffffffffffffffffffffffffffffffffffffff1681526020019081526020015f205f8282546107489190611226565b925050819055508273ffffffffffffffffffffffffffffffffffffffff168473ffffffffffffffffffffffffffffffffffffffff167fddf252ad1be2c89b69c2b068fc378daa952ba7f163c4a11628f55a4df523b3ef846040516107ac9190610ea4565b60405180910390a3600190509392505050565b60045481565b60035f9054906101000a900473ffffffffffffffffffffffffffffffffffffffff1673ffffffffffffffffffffffffffffffffffffffff163373ffffffffffffffffffffffffffffffffffffffff1614610854576040517f08c379a000000000000000000000000000000000000000000000000000000000815260040161084b906112a3565b60405180910390fd5b8060055f3373ffffffffffffffffffffffffffffffffffffffff1673ffffffffffffffffffffffffffffffffffffffff1681526020019081526020015f205f8282546108a091906111f3565b92505081905550805f5f8282546108b791906111f3565b925050819055505f73ffffffffffffffffffffffffffffffffffffffff163373ffffffffffffffffffffffffffffffffffffffff167fddf252ad1be2c89b69c2b068fc378daa952ba7f163c4a11628f55a4df523b3ef8360405161091b9190610ea4565b60405180910390a350565b6005602052805f5260405f205f915090505481565b60035f9054906101000a900473ffffffffffffffffffffffffffffffffffffffff1681565b6002805461096d90610ff6565b80601f016020809104026020016040519081016040528092919081815260200182805461099990610ff6565b80156109e45780601f106109bb576101008083540402835291602001916109e4565b820191905f5260205f20905b8154815290600101906020018083116109c757829003601f168201915b505050505081565b60035f9054906101000a900473ffffffffffffffffffffffffffffffffffffffff1673ffffffffffffffffffffffffffffffffffffffff163373ffffffffffffffffffffffffffffffffffffffff1614610a7b576040517f08c379a0000000000000000000000000000000000000000000000000000000008152600401610a729061130b565b60405180910390fd5b8060055f3373ffffffffffffffffffffffffffffffffffffffff1673ffffffffffffffffffffffffffffffffffffffff1681526020019081526020015f205f828254610ac79190611226565b92505081905550805f5f828254610ade9190611226565b925050819055503373ffffffffffffffffffffffffffffffffffffffff165f73ffffffffffffffffffffffffffffffffffffffff167fddf252ad1be2c89b69c2b068fc378daa952ba7f163c4a11628f55a4df523b3ef83604051610b429190610ea4565b60405180910390a350565b5f8160055f3373ffffffffffffffffffffffffffffffffffffffff1673ffffffffffffffffffffffffffffffffffffffff1681526020019081526020015f20541015610bce576040517f08c379a0000000000000000000000000000000000000000000000000000000008152600401610bc590611140565b60405180910390fd5b8160055f3373ffffffffffffffffffffffffffffffffffffffff1673ffffffffffffffffffffffffffffffffffffffff1681526020019081526020015f205f828254610c1a91906111f3565b925050819055508160055f8573ffffffffffffffffffffffffffffffffffffffff1673ffffffffffffffffffffffffffffffffffffffff1681526020019081526020015f205f828254610c6d9190611226565b925050819055508273ffffffffffffffffffffffffffffffffffffffff163373ffffffffffffffffffffffffffffffffffffffff167fddf252ad1be2c89b69c2b068fc378daa952ba7f163c4a11628f55a4df523b3ef84604051610cd19190610ea4565b60405180910390a36001905092915050565b6006602052815f5260405f20602052805f5260405f205f91509150505481565b5f81519050919050565b5f82825260208201905092915050565b8281835e5f83830152505050565b5f601f19601f8301169050919050565b5f610d4582610d03565b610d4f8185610d0d565b9350610d5f818560208601610d1d565b610d6881610d2b565b840191505092915050565b5f6020820190508181035f830152610d8b8184610d3b565b905092915050565b5f5ffd5b5f73ffffffffffffffffffffffffffffffffffffffff82169050919050565b5f610dc082610d97565b9050919050565b610dd081610db6565b8114610dda575f5ffd5b50565b5f81359050610deb81610dc7565b92915050565b5f819050919050565b610e0381610df1565b8114610e0d575f5ffd5b50565b5f81359050610e1e81610dfa565b92915050565b5f5f60408385031215610e3a57610e39610d93565b5b5f610e4785828601610ddd565b9250506020610e5885828601610e10565b9150509250929050565b5f8115159050919050565b610e7681610e62565b82525050565b5f602082019050610e8f5f830184610e6d565b92915050565b610e9e81610df1565b82525050565b5f602082019050610eb75f830184610e95565b92915050565b5f5f5f60608486031215610ed457610ed3610d93565b5b5f610ee186828701610ddd565b9350506020610ef286828701610ddd565b9250506040610f0386828701610e10565b9150509250925092565b5f60208284031215610f2257610f21610d93565b5b5f610f2f84828501610e10565b91505092915050565b5f60208284031215610f4d57610f4c610d93565b5b5f610f5a84828501610ddd565b91505092915050565b610f6c81610db6565b82525050565b5f602082019050610f855f830184610f63565b92915050565b5f5f60408385031215610fa157610fa0610d93565b5b5f610fae85828601610ddd565b9250506020610fbf85828601610ddd565b9150509250929050565b7f4e487b71000000000000000000000000000000000000000000000000000000005f52602260045260245ffd5b5f600282049050600182168061100d57607f821691505b6020821081036110205761101f610fc9565b5b50919050565b7f4552524f523a2063616e6e6f7420617070726f766520796f757273656c6600005f82015250565b5f61105a601e83610d0d565b915061106582611026565b602082019050919050565b5f6020820190508181035f8301526110878161104e565b9050919050565b7f4552524f523a206e6f7420656e6f7567682062616c616e6365000000000000005f82015250565b5f6110c2601983610d0d565b91506110cd8261108e565b602082019050919050565b5f6020820190508181035f8301526110ef816110b6565b9050919050565b7f4552524f523a2062616c616e636520746f6f206c6f77000000000000000000005f82015250565b5f61112a601683610d0d565b9150611135826110f6565b602082019050919050565b5f6020820190508181035f8301526111578161111e565b9050919050565b7f4552524f523a20616c6c6f77616e636520746f6f206c6f7700000000000000005f82015250565b5f611192601883610d0d565b915061119d8261115e565b602082019050919050565b5f6020820190508181035f8301526111bf81611186565b9050919050565b7f4e487b71000000000000000000000000000000000000000000000000000000005f52601160045260245ffd5b5f6111fd82610df1565b915061120883610df1565b92508282039050818111156112205761121f6111c6565b5b92915050565b5f61123082610df1565b915061123b83610df1565b9250828201905080821115611253576112526111c6565b5b92915050565b7f4552524f523a206f6e6c79206f776e65722063616e206275726e0000000000005f82015250565b5f61128d601a83610d0d565b915061129882611259565b602082019050919050565b5f6020820190508181035f8301526112ba81611281565b9050919050565b7f4552524f523a206f6e6c79206f776e65722063616e206d696e740000000000005f82015250565b5f6112f5601a83610d0d565b9150611300826112c1565b602082019050919050565b5f6020820190508181035f830152611322816112e9565b905091905056fea2646970667358221220773f90d3f134cf1d7e5612cf03a5c2ec52f329f75f54b4fa8090074ebc4ad7ef64736f6c634300081d0033",
  "immutableReferences": {},
  "source": "// SPDX-License-Identifier: MIT\npragma solidity ^0.8.29;\n\nimport \"./IERC20.sol\";\n\n// Interface for the ERC20 standard token\ncontract GTT is IERC20 {\n\n    // \n    uint256 public override totalSupply;\n    // \n    string public name;\n    // \n    string public symbol;\n    // \n    address public owner;\n\n    // \n    uint public decimals = 18;\n    // \n    mapping(address => uint256) public override balanceOf;\n    //  \n    mapping(address => mapping(address => uint256)) public override allowance;\n\n    constructor(string memory _name, string memory _symbol, uint256 _totalSupply) {\n        require(bytes(_name).length > 0, \"ERROR: name is empty\");\n        require(bytes(_symbol).length > 0, \"ERROR: symbol is empty\");\n        require(_totalSupply > 0, \"ERROR: total supply must be greater than zero\");\n\n        name = _name;\n        symbol = _symbol;\n        totalSupply = _totalSupply;\n        balanceOf[msg.sender] = _totalSupply;\n        owner = msg.sender; // owner\n    }  \n\n    // transfer\n    // Transfer\n    function transfer(address recipient, uint amount) external override returns (bool) {\n        require(balanceOf[msg.sender] >= amount, \"ERROR: balance too low\");\n        balanceOf[msg.sender] -= amount;\n        balanceOf[recipient] += amount;\n        emit Transfer(msg.sender, recipient, amount);\n        return true;\n    }\n\n    // approvespender\n    // Approval\n    function approve(address spender, uint amount) external override returns (bool) {\n        require(msg.sender != spender, \"ERROR: cannot approve yourself\");\n        require(balanceOf[msg.sender] >= amount, \"ERROR: not enough balance\");\n        allowance[msg.sender][spender] = amount;\n        emit Approval(msg.sender, spender, amount);\n        return true;\n    }\n\n    // transferFromsenderrecipient\n    // Transfer\n    function transferFrom(address sender, address recipient, uint amount) external override returns (bool) {\n        require(balanceOf[sender] > amount, \"ERROR: balance too low\");\n        require(allowance[sender][msg.sender] >= amount, \"ERROR: allowance too low\");\n        allowance[sender][msg.sender] -= amount;\n        balanceOf[sender] -= amount;\n        balanceOf[recipient] += amount;\n        emit Transfer(sender, recipient, amount);\n        return true;\n    }\n\n    // mint\n    // Transfer\n    function mint(uint256 amount) external {\n        require(msg.sender == owner, \"ERROR: only owner can mint\");\n        balanceOf[msg.sender] += amount;\n        totalSupply += amount;\n        emit Transfer(address(0), msg.sender, amount);\n    }\n\n    // burn\n    // Transfer\n    function burn(uint256 amount) external {\n        require(msg.sender == owner, \"ERROR: only owner can burn\");\n        balanceOf[msg.sender] -= amount;\n        totalSupply -= amount;\n        emit Transfer(msg.sender, address(0), amount);\n    }\n\n}",
  "sourcePath": "/Users/weiwei/Desktop///ERC20-Token-Demo/contracts/GTT.sol",
  "compiler": {
    "name": "solc",
    "version": "0.8.29+commit.ab55807c.Emscripten.clang"
  },
  "schemaVersion": "3.4.16",
  "updatedAt": "2025-03-15T15:16:13.658Z",
  "devdoc": {
    "kind": "dev",
    "methods": {},
    "version": 1
  },
  "userdoc": {
    "kind": "user",
    "methods": {},
    "version": 1
  }
}