{
  "contractName": "GTT",
  "abi": [
    {
      "inputs": [
        {
          "internalType": "string",
          "name": "_name",
          "type": "string"
        },
        {
          "internalType": "string",
          "name": "_symbol",
          "type": "string"
        },
        {
          "internalType": "uint256",
          "name": "_totalSupply",
          "type": "uint256"
        }
      ],
      "stateMutability": "nonpayable",
      "type": "constructor"
    },
    {
      "anonymous": false,
      "inputs": [
        {
          "indexed": true,
          "internalType": "address",
          "name": "owner",
          "type": "address"
        },
        {
          "indexed": true,
          "internalType": "address",
          "name": "spender",
          "type": "address"
        },
        {
          "indexed": false,
          "internalType": "uint256",
          "name": "value",
          "type": "uint256"
        }
      ],
      "name": "Approval",
      "type": "event"
    },
    {
      "anonymous": false,
      "inputs": [
        {
          "indexed": true,
          "internalType": "address",
          "name": "from",
          "type": "address"
        },
        {
          "indexed": true,
          "internalType": "address",
          "name": "to",
          "type": "address"
        },
        {
          "indexed": false,
          "internalType": "uint256",
          "name": "value",
          "type": "uint256"
        }
      ],
      "name": "Transfer",
      "type": "event"
    },
    {
      "inputs": [
        {
          "internalType": "address",
          "name": "",
          "type": "address"
        },
        {
          "internalType": "address",
          "name": "",
          "type": "address"
        }
      ],
      "name": "allowance",
      "outputs": [
        {
          "internalType": "uint256",
          "name": "",
          "type": "uint256"
        }
      ],
      "stateMutability": "view",
      "type": "function",
      "constant": true
    },
    {
      "inputs": [
        {
          "internalType": "address",
          "name": "",
          "type": "address"
        }
      ],
      "name": "balanceOf",
      "outputs": [
        {
          "internalType": "uint256",
          "name": "",
          "type": "uint256"
        }
      ],
      "stateMutability": "view",
      "type": "function",
      "constant": true
    },
    {
      "inputs": [],
      "name": "decimals",
      "outputs": [
        {
          "internalType": "uint256",
          "name": "",
          "type": "uint256"
        }
      ],
      "stateMutability": "view",
      "type": "function",
      "constant": true
    },
    {
      "inputs": [],
      "name": "name",
      "outputs": [
        {
          "internalType": "string",
          "name": "",
          "type": "string"
        }
      ],
      "stateMutability": "view",
      "type": "function",
      "constant": true
    },
    {
      "inputs": [],
      "name": "owner",
      "outputs": [
        {
          "internalType": "address",
          "name": "",
          "type": "address"
        }
      ],
      "stateMutability": "view",
      "type": "function",
      "constant": true
    },
    {
      "inputs": [],
      "name": "symbol",
      "outputs": [
        {
          "internalType": "string",
          "name": "",
          "type": "string"
        }
      ],
      "stateMutability": "view",
      "type": "function",
      "constant": true
    },
    {
      "inputs": [],
      "name": "totalSupply",
      "outputs": [
        {
          "internalType": "uint256",
          "name": "",
          "type": "uint256"
        }
      ],
      "stateMutability": "view",
      "type": "function",
      "constant": true
    },
    {
      "inputs": [
        {
          "internalType": "address",
          "name": "recipient",
          "type": "address"
        },
        {
          "internalType": "uint256",
          "name": "amount",
          "type": "uint256"
        }
      ],
      "name": "transfer",
      "outputs": [
        {
          "internalType": "bool",
          "name": "",
          "type": "bool"
        }
      ],
      "stateMutability": "nonpayable",
      "type": "function"
    },
    {
      "inputs": [
        {
          "internalType": "address",
          "name": "spender",
          "type": "address"
        },
        {
          "internalType": "uint256",
          "name": "amount",
          "type": "uint256"
        }
      ],
      "name": "approve",
      "outputs": [
        {
          "internalType": "bool",
          "name": "",
          "type": "bool"
        }
      ],
      "stateMutability": "nonpayable",
      "type": "function"
    },
    {
      "inputs": [
        {
          "internalType": "address",
          "name": "sender",
          "type": "address"
        },
        {
          "internalType": "address",
          "name": "recipient",
          "type": "address"
        },
        {
          "internalType": "uint256",
          "name": "amount",
          "type": "uint256"
        }
      ],
      "name": "transferFrom",
      "outputs": [
        {
          "internalType": "bool",
          "name": "",
          "type": "bool"
        }
      ],
      "stateMutability": "nonpayable",
      "type": "function"
    },
    {
      "inputs": [
        {
          "internalType": "uint256",
          "name": "amount",
          "type": "uint256"
        }
      ],
      "name": "mint",
      "outputs": [],
      "stateMutability": "nonpayable",
      "type": "function"
    },
    {
      "inputs": [
        {
          "internalType": "uint256",
          "name": "amount",
          "type": "uint256"
        }
      ],
      "name": "burn",
      "outputs": [],
      "stateMutability": "nonpayable",
      "type": "function"
    }
  ],
  "bytecode": "0x6080604052601260045534801561001557600080fd5b50604051611c3d380380611c3d833981810160405281019061003791906102af565b82600190816100469190610557565b5081600290816100569190610557565b50600454600a610066919061078b565b8161007191906107d6565b60008190555033600360006101000a81548173ffffffffffffffffffffffffffffffffffffffff021916908373ffffffffffffffffffffffffffffffffffffffff16021790555080600560003373ffffffffffffffffffffffffffffffffffffffff1673ffffffffffffffffffffffffffffffffffffffff16815260200190815260200160002081905550505050610818565b6000604051905090565b600080fd5b600080fd5b600080fd5b600080fd5b6000601f19601f8301169050919050565b7f4e487b7100000000000000000000000000000000000000000000000000000000600052604160045260246000fd5b61016b82610122565b810181811067ffffffffffffffff8211171561018a57610189610133565b5b80604052505050565b600061019d610104565b90506101a98282610162565b919050565b600067ffffffffffffffff8211156101c9576101c8610133565b5b6101d282610122565b9050602081019050919050565b60005b838110156101fd5780820151818401526020810190506101e2565b60008484015250505050565b600061021c610217846101ae565b610193565b9050828152602081018484840111156102385761023761011d565b5b6102438482856101df565b509392505050565b600082601f8301126102605761025f610118565b5b8151610270848260208601610209565b91505092915050565b6000819050919050565b61028c81610279565b811461029757600080fd5b50565b6000815190506102a981610283565b92915050565b6000806000606084860312156102c8576102c761010e565b5b600084015167ffffffffffffffff8111156102e6576102e5610113565b5b6102f28682870161024b565b935050602084015167ffffffffffffffff81111561031357610312610113565b5b61031f8682870161024b565b92505060406103308682870161029a565b9150509250925092565b600081519050919050565b7f4e487b7100000000000000000000000000000000000000000000000000000000600052602260045260246000fd5b6000600282049050600182168061038c57607f821691505b60208210810361039f5761039e610345565b5b50919050565b60008190508160005260206000209050919050565b60006020601f8301049050919050565b60008160020a8302905092915050565b60006008830261040a7fffffffffffffffffffffffffffffffffffffffffffffffffffffffffffffffff826103ca565b61041486836103ca565b95508019841693508086168417925050509392505050565b6000819050919050565b600061045161044c61044784610279565b61042c565b610279565b9050919050565b6000819050919050565b61046b83610436565b61047f61047782610458565b8484546103da565b825550505050565b600090565b610494610487565b61049f818484610462565b505050565b5b818110156104c3576104b860008261048c565b6001810190506104a5565b5050565b601f821115610508576104d9816103a5565b6104e2846103ba565b810160208510156104f1578190505b6105056104fd856103ba565b8301826104a4565b50505b505050565b60008160020a8304905092915050565b600061052e6000198460080261050d565b1980831691505092915050565b6000610547838361051d565b9150826002028217905092915050565b6105608261033a565b67ffffffffffffffff81111561057957610578610133565b5b6105838254610374565b61058e8282856104c7565b600060209050601f8311600181146105c157600084156105af578287015190505b6105b9858261053b565b865550610621565b601f1984166105cf866103a5565b60005b828110156105f7578489015182556001820191506020850194506020810190506105d2565b868310156106145784890151610610601f89168261051d565b8355505b6001600288020188555050505b505050505050565b7f4e487b7100000000000000000000000000000000000000000000000000000000600052601160045260246000fd5b6000600282049050919050565b6000808291508390505b60018511156106af5780860481111561068b5761068a610629565b5b600185161561069a5780820291505b80810290506106a885610658565b945061066f565b94509492505050565b6000826106c85760019050610784565b816106d65760009050610784565b81600181146106ec57600281146106f657610725565b6001915050610784565b60ff84111561070857610707610629565b5b8360020a91508482111561071f5761071e610629565b5b50610784565b5060208310610133831016604e8410600b841016171561075a5782820a90508381111561075557610754610629565b5b610784565b6107678484846001610665565b9250905081840481111561077e5761077d610629565b5b81810290505b9392505050565b600061079682610279565b91506107a183610279565b92506107ce7fffffffffffffffffffffffffffffffffffffffffffffffffffffffffffffffff84846106b8565b905092915050565b60006107e182610279565b91506107ec83610279565b92508282026107fa81610279565b9150828204841483151761081157610810610629565b5b5092915050565b611416806108276000396000f3fe608060405234801561001057600080fd5b50600436106100d1576000357c01000000000000000000000000000000000000000000000000000000009004806370a082311161008e57806370a08231146101ac5780638da5cb5b146101dc57806395d89b41146101fa578063a0712d6814610218578063a9059cbb14610234578063dd62ed3e14610264576100d1565b806306fdde03146100d6578063095ea7b3146100f457806318160ddd1461012457806323b872dd14610142578063313ce5671461017257806342966c6814610190575b600080fd5b6100de610294565b6040516100eb9190610def565b60405180910390f35b61010e60048036038101906101099190610eaa565b610322565b60405161011b9190610f05565b60405180910390f35b61012c610504565b6040516101399190610f2f565b60405180910390f35b61015c60048036038101906101579190610f4a565b61050a565b6040516101699190610f05565b60405180910390f35b61017a6107fb565b6040516101879190610f2f565b60405180910390f35b6101aa60048036038101906101a59190610f9d565b610801565b005b6101c660048036038101906101c19190610fca565b610968565b6040516101d39190610f2f565b60405180910390f35b6101e4610980565b6040516101f19190611006565b60405180910390f35b6102026109a6565b60405161020f9190610def565b60405180910390f35b610232600480360381019061022d9190610f9d565b610a34565b005b61024e60048036038101906102499190610eaa565b610b9b565b60405161025b9190610f05565b60405180910390f35b61027e60048036038101906102799190611021565b610d3a565b60405161028b9190610f2f565b60405180910390f35b600180546102a190611090565b80601f01602080910402602001604051908101604052809291908181526020018280546102cd90611090565b801561031a5780601f106102ef5761010080835404028352916020019161031a565b820191906000526020600020905b8154815290600101906020018083116102fd57829003601f168201915b505050505081565b60008273ffffffffffffffffffffffffffffffffffffffff163373ffffffffffffffffffffffffffffffffffffffff1603610392576040517f08c379a00000000000000000000000000000000000000000000000000000000081526004016103899061110d565b60405180910390fd5b81600560003373ffffffffffffffffffffffffffffffffffffffff1673ffffffffffffffffffffffffffffffffffffffff168152602001908152602001600020541015610414576040517f08c379a000000000000000000000000000000000000000000000000000000000815260040161040b90611179565b60405180910390fd5b81600660003373ffffffffffffffffffffffffffffffffffffffff1673ffffffffffffffffffffffffffffffffffffffff16815260200190815260200160002060008573ffffffffffffffffffffffffffffffffffffffff1673ffffffffffffffffffffffffffffffffffffffff168152602001908152602001600020819055508273ffffffffffffffffffffffffffffffffffffffff163373ffffffffffffffffffffffffffffffffffffffff167f8c5be1e5ebec7d5bd14f71427d1e84f3dd0314c0f7b2291e5b200ac8c7c3b925846040516104f29190610f2f565b60405180910390a36001905092915050565b60005481565b600081600560008673ffffffffffffffffffffffffffffffffffffffff1673ffffffffffffffffffffffffffffffffffffffff168152602001908152602001600020541161058d576040517f08c379a0000000000000000000000000000000000000000000000000000000008152600401610584906111e5565b60405180910390fd5b81600660008673ffffffffffffffffffffffffffffffffffffffff1673ffffffffffffffffffffffffffffffffffffffff16815260200190815260200160002060003373ffffffffffffffffffffffffffffffffffffffff1673ffffffffffffffffffffffffffffffffffffffff16815260200190815260200160002054101561064c576040517f08c379a000000000000000000000000000000000000000000000000000000000815260040161064390611251565b60405180910390fd5b81600660008673ffffffffffffffffffffffffffffffffffffffff1673ffffffffffffffffffffffffffffffffffffffff16815260200190815260200160002060003373ffffffffffffffffffffffffffffffffffffffff1673ffffffffffffffffffffffffffffffffffffffff16815260200190815260200160002060008282546106d891906112a0565b9250508190555081600560008673ffffffffffffffffffffffffffffffffffffffff1673ffffffffffffffffffffffffffffffffffffffff168152602001908152602001600020600082825461072e91906112a0565b9250508190555081600560008573ffffffffffffffffffffffffffffffffffffffff1673ffffffffffffffffffffffffffffffffffffffff168152602001908152602001600020600082825461078491906112d4565b925050819055508273ffffffffffffffffffffffffffffffffffffffff168473ffffffffffffffffffffffffffffffffffffffff167fddf252ad1be2c89b69c2b068fc378daa952ba7f163c4a11628f55a4df523b3ef846040516107e89190610f2f565b60405180910390a3600190509392505050565b60045481565b600360009054906101000a900473ffffffffffffffffffffffffffffffffffffffff1673ffffffffffffffffffffffffffffffffffffffff163373ffffffffffffffffffffffffffffffffffffffff1614610891576040517f08c379a000000000000000000000000000000000000000000000000000000000815260040161088890611354565b60405180910390fd5b80600560003373ffffffffffffffffffffffffffffffffffffffff1673ffffffffffffffffffffffffffffffffffffffff16815260200190815260200160002060008282546108e091906112a0565b92505081905550806000808282546108f891906112a0565b92505081905550600073ffffffffffffffffffffffffffffffffffffffff163373ffffffffffffffffffffffffffffffffffffffff167fddf252ad1be2c89b69c2b068fc378daa952ba7f163c4a11628f55a4df523b3ef8360405161095d9190610f2f565b60405180910390a350565b60056020528060005260406000206000915090505481565b600360009054906101000a900473ffffffffffffffffffffffffffffffffffffffff1681565b600280546109b390611090565b80601f01602080910402602001604051908101604052809291908181526020018280546109df90611090565b8015610a2c5780601f10610a0157610100808354040283529160200191610a2c565b820191906000526020600020905b815481529060010190602001808311610a0f57829003601f168201915b505050505081565b600360009054906101000a900473ffffffffffffffffffffffffffffffffffffffff1673ffffffffffffffffffffffffffffffffffffffff163373ffffffffffffffffffffffffffffffffffffffff1614610ac4576040517f08c379a0000000000000000000000000000000000000000000000000000000008152600401610abb906113c0565b60405180910390fd5b80600560003373ffffffffffffffffffffffffffffffffffffffff1673ffffffffffffffffffffffffffffffffffffffff1681526020019081526020016000206000828254610b1391906112d4565b9250508190555080600080828254610b2b91906112d4565b925050819055503373ffffffffffffffffffffffffffffffffffffffff16600073ffffffffffffffffffffffffffffffffffffffff167fddf252ad1be2c89b69c2b068fc378daa952ba7f163c4a11628f55a4df523b3ef83604051610b909190610f2f565b60405180910390a350565b600081600560003373ffffffffffffffffffffffffffffffffffffffff1673ffffffffffffffffffffffffffffffffffffffff168152602001908152602001600020541015610c1f576040517f08c379a0000000000000000000000000000000000000000000000000000000008152600401610c16906111e5565b60405180910390fd5b81600560003373ffffffffffffffffffffffffffffffffffffffff1673ffffffffffffffffffffffffffffffffffffffff1681526020019081526020016000206000828254610c6e91906112a0565b9250508190555081600560008573ffffffffffffffffffffffffffffffffffffffff1673ffffffffffffffffffffffffffffffffffffffff1681526020019081526020016000206000828254610cc491906112d4565b925050819055508273ffffffffffffffffffffffffffffffffffffffff163373ffffffffffffffffffffffffffffffffffffffff167fddf252ad1be2c89b69c2b068fc378daa952ba7f163c4a11628f55a4df523b3ef84604051610d289190610f2f565b60405180910390a36001905092915050565b6006602052816000526040600020602052806000526040600020600091509150505481565b600081519050919050565b600082825260208201905092915050565b60005b83811015610d99578082015181840152602081019050610d7e565b60008484015250505050565b6000601f19601f8301169050919050565b6000610dc182610d5f565b610dcb8185610d6a565b9350610ddb818560208601610d7b565b610de481610da5565b840191505092915050565b60006020820190508181036000830152610e098184610db6565b905092915050565b600080fd5b600073ffffffffffffffffffffffffffffffffffffffff82169050919050565b6000610e4182610e16565b9050919050565b610e5181610e36565b8114610e5c57600080fd5b50565b600081359050610e6e81610e48565b92915050565b6000819050919050565b610e8781610e74565b8114610e9257600080fd5b50565b600081359050610ea481610e7e565b92915050565b60008060408385031215610ec157610ec0610e11565b5b6000610ecf85828601610e5f565b9250506020610ee085828601610e95565b9150509250929050565b60008115159050919050565b610eff81610eea565b82525050565b6000602082019050610f1a6000830184610ef6565b92915050565b610f2981610e74565b82525050565b6000602082019050610f446000830184610f20565b92915050565b600080600060608486031215610f6357610f62610e11565b5b6000610f7186828701610e5f565b9350506020610f8286828701610e5f565b9250506040610f9386828701610e95565b9150509250925092565b600060208284031215610fb357610fb2610e11565b5b6000610fc184828501610e95565b91505092915050565b600060208284031215610fe057610fdf610e11565b5b6000610fee84828501610e5f565b91505092915050565b61100081610e36565b82525050565b600060208201905061101b6000830184610ff7565b92915050565b6000806040838503121561103857611037610e11565b5b600061104685828601610e5f565b925050602061105785828601610e5f565b9150509250929050565b7f4e487b7100000000000000000000000000000000000000000000000000000000600052602260045260246000fd5b600060028204905060018216806110a857607f821691505b6020821081036110bb576110ba611061565b5b50919050565b7f4552524f523a2063616e6e6f7420617070726f766520796f757273656c660000600082015250565b60006110f7601e83610d6a565b9150611102826110c1565b602082019050919050565b60006020820190508181036000830152611126816110ea565b9050919050565b7f4552524f523a206e6f7420656e6f7567682062616c616e636500000000000000600082015250565b6000611163601983610d6a565b915061116e8261112d565b602082019050919050565b6000602082019050818103600083015261119281611156565b9050919050565b7f4552524f523a2062616c616e636520746f6f206c6f7700000000000000000000600082015250565b60006111cf601683610d6a565b91506111da82611199565b602082019050919050565b600060208201905081810360008301526111fe816111c2565b9050919050565b7f4552524f523a20616c6c6f77616e636520746f6f206c6f770000000000000000600082015250565b600061123b601883610d6a565b915061124682611205565b602082019050919050565b6000602082019050818103600083015261126a8161122e565b9050919050565b7f4e487b7100000000000000000000000000000000000000000000000000000000600052601160045260246000fd5b60006112ab82610e74565b91506112b683610e74565b92508282039050818111156112ce576112cd611271565b5b92915050565b60006112df82610e74565b91506112ea83610e74565b925082820190508082111561130257611301611271565b5b92915050565b7f4552524f523a206f6e6c79206f776e65722063616e206275726e000000000000600082015250565b600061133e601a83610d6a565b915061134982611308565b602082019050919050565b6000602082019050818103600083015261136d81611331565b9050919050565b7f4552524f523a206f6e6c79206f776e65722063616e206d696e74000000000000600082015250565b60006113aa601a83610d6a565b91506113b582611374565b602082019050919050565b600060208201905081810360008301526113d98161139d565b905091905056fea2646970667358221220699ec90e41ef1b43c6357725eb673319de9e462af5d9acdc85d1797affbac4af64736f6c634300081d0033",
  "immutableReferences": {},
  "source": "// SPDX-License-Identifier: MIT\npragma solidity ^0.8.29;\n\nimport \"./IERC20.sol\";\n\n// Interface for the ERC20 standard token\ncontract GTT is IERC20 {\n\n    // \n    uint256 public override totalSupply;\n    // \n    string public name;\n    // \n    string public symbol;\n    // \n    address public owner;\n\n    // \n    uint public decimals = 18;\n    // \n    mapping(address => uint256) public override balanceOf;\n    //  \n    mapping(address => mapping(address => uint256)) public override allowance;\n\n    constructor(string memory _name, string memory _symbol, uint256 _totalSupply) {\n        name = _name;\n        symbol = _symbol;\n        totalSupply = _totalSupply * (10 ** decimals);\n        owner = msg.sender;\n        balanceOf[msg.sender] = _totalSupply;\n    }\n\n    // transfer\n    // Transfer\n    function transfer(address recipient, uint amount) external override returns (bool) {\n        require(balanceOf[msg.sender] >= amount, \"ERROR: balance too low\");\n        balanceOf[msg.sender] -= amount;\n        balanceOf[recipient] += amount;\n        emit Transfer(msg.sender, recipient, amount);\n        return true;\n    }\n\n    // approvespender\n    // Approval\n    function approve(address spender, uint amount) external override returns (bool) {\n        require(msg.sender != spender, \"ERROR: cannot approve yourself\");\n        require(balanceOf[msg.sender] >= amount, \"ERROR: not enough balance\");\n        allowance[msg.sender][spender] = amount;\n        emit Approval(msg.sender, spender, amount);\n        return true;\n    }\n\n    // transferFromsenderrecipient\n    // Transfer\n    function transferFrom(address sender, address recipient, uint amount) external override returns (bool) {\n        require(balanceOf[sender] > amount, \"ERROR: balance too low\");\n        require(allowance[sender][msg.sender] >= amount, \"ERROR: allowance too low\");\n        allowance[sender][msg.sender] -= amount;\n        balanceOf[sender] -= amount;\n        balanceOf[recipient] += amount;\n        emit Transfer(sender, recipient, amount);\n        return true;\n    }\n\n    // mint\n    // Transfer\n    function mint(uint256 amount) external {\n        require(msg.sender == owner, \"ERROR: only owner can mint\");\n        balanceOf[msg.sender] += amount;\n        totalSupply += amount;\n        emit Transfer(address(0), msg.sender, amount);\n    }\n\n    // burn\n    // Transfer\n    function burn(uint256 amount) external {\n        require(msg.sender == owner, \"ERROR: only owner can burn\");\n        balanceOf[msg.sender] -= amount;\n        totalSupply -= amount;\n        emit Transfer(msg.sender, address(0), amount);\n    }\n\n}",
  "sourcePath": "/Users/weiwei/Desktop///ERC20-Token-Demo/contracts/GTT.sol",
  "compiler": {
    "name": "solc",
    "version": "0.8.29+commit.ab55807c.Emscripten.clang"
  },
  "schemaVersion": "3.4.16",
  "updatedAt": "2025-03-16T02:30:14.344Z",
  "networkType": "ethereum",
  "devdoc": {
    "kind": "dev",
    "methods": {},
    "version": 1
  },
  "userdoc": {
    "kind": "user",
    "methods": {},
    "version": 1
  }
}